{
  "contractName": "MyToken",
  "abi": [
    {
      "inputs": [
        {
          "internalType": "string",
          "name": "name",
          "type": "string"
        },
        {
          "internalType": "string",
          "name": "symbol",
          "type": "string"
        }
      ],
      "stateMutability": "nonpayable",
      "type": "constructor"
    },
    {
      "anonymous": false,
      "inputs": [
        {
          "indexed": true,
          "internalType": "address",
          "name": "from",
          "type": "address"
        },
        {
          "indexed": true,
          "internalType": "uint256",
          "name": "tokenId",
          "type": "uint256"
        }
      ],
      "name": "TakeNFT",
      "type": "event"
    },
    {
      "anonymous": false,
      "inputs": [
        {
          "indexed": true,
          "internalType": "address",
          "name": "from",
          "type": "address"
        },
        {
          "indexed": true,
          "internalType": "address",
          "name": "to",
          "type": "address"
        },
        {
          "indexed": true,
          "internalType": "uint256",
          "name": "tokenId",
          "type": "uint256"
        }
      ],
      "name": "Transfer",
      "type": "event"
    },
    {
      "anonymous": false,
      "inputs": [
        {
          "indexed": true,
          "internalType": "uint256",
          "name": "tokenIdF",
          "type": "uint256"
        },
        {
          "indexed": true,
          "internalType": "uint256",
          "name": "tokenIdS",
          "type": "uint256"
        },
        {
          "indexed": true,
          "internalType": "address",
          "name": "to",
          "type": "address"
        }
      ],
      "name": "sendRewardNFTs",
      "type": "event"
    },
    {
      "inputs": [],
      "name": "_owner",
      "outputs": [
        {
          "internalType": "address",
          "name": "",
          "type": "address"
        }
      ],
      "stateMutability": "view",
      "type": "function",
      "constant": true
    },
    {
      "inputs": [
        {
          "internalType": "address",
          "name": "owner",
          "type": "address"
        }
      ],
      "name": "balanceOf",
      "outputs": [
        {
          "internalType": "uint256",
          "name": "",
          "type": "uint256"
        }
      ],
      "stateMutability": "view",
      "type": "function",
      "constant": true
    },
    {
      "inputs": [],
      "name": "name",
      "outputs": [
        {
          "internalType": "string",
          "name": "",
          "type": "string"
        }
      ],
      "stateMutability": "view",
      "type": "function",
      "constant": true
    },
    {
      "inputs": [
        {
          "internalType": "uint256",
          "name": "tokenId",
          "type": "uint256"
        }
      ],
      "name": "ownerOf",
      "outputs": [
        {
          "internalType": "address",
          "name": "",
          "type": "address"
        }
      ],
      "stateMutability": "view",
      "type": "function",
      "constant": true
    },
    {
      "inputs": [],
      "name": "symbol",
      "outputs": [
        {
          "internalType": "string",
          "name": "",
          "type": "string"
        }
      ],
      "stateMutability": "view",
      "type": "function",
      "constant": true
    },
    {
      "inputs": [],
      "name": "mint",
      "outputs": [],
      "stateMutability": "nonpayable",
      "type": "function"
    },
    {
      "inputs": [
        {
          "internalType": "uint256",
          "name": "tokenId_",
          "type": "uint256"
        },
        {
          "internalType": "uint256",
          "name": "tokenPrice",
          "type": "uint256"
        }
      ],
      "name": "startSale",
      "outputs": [],
      "stateMutability": "nonpayable",
      "type": "function"
    },
    {
      "inputs": [
        {
          "internalType": "uint256",
          "name": "tokenId_",
          "type": "uint256"
        }
      ],
      "name": "finishSale",
      "outputs": [],
      "stateMutability": "payable",
      "type": "function",
      "payable": true
    },
    {
      "inputs": [
        {
          "internalType": "uint256",
          "name": "tokenId_",
          "type": "uint256"
        }
      ],
      "name": "cancelSale",
      "outputs": [],
      "stateMutability": "nonpayable",
      "type": "function"
    },
    {
      "inputs": [
        {
          "internalType": "address",
          "name": "to",
          "type": "address"
        },
        {
          "internalType": "uint256",
          "name": "tokenID",
          "type": "uint256"
        }
      ],
      "name": "transfer",
      "outputs": [],
      "stateMutability": "nonpayable",
      "type": "function"
    },
    {
      "inputs": [
        {
          "internalType": "uint256",
          "name": "tokenId_",
          "type": "uint256"
        }
      ],
      "name": "takeNFT",
      "outputs": [],
      "stateMutability": "payable",
      "type": "function",
      "payable": true
    },
    {
      "inputs": [
        {
          "internalType": "uint256",
          "name": "tokenIdF",
          "type": "uint256"
        },
        {
          "internalType": "uint256",
          "name": "tokenIdS",
          "type": "uint256"
        },
        {
          "internalType": "address",
          "name": "to",
          "type": "address"
        }
      ],
      "name": "sendNFTsToWinner",
      "outputs": [],
      "stateMutability": "nonpayable",
      "type": "function"
    }
  ],
  "bytecode": "0x608060405260006005553480156200001657600080fd5b50604051620022763803806200227683398181016040528101906200003c919062000257565b818181600090816200004f919062000527565b50806001908162000061919062000527565b5062000072620000bc60201b60201c565b600260006101000a81548173ffffffffffffffffffffffffffffffffffffffff021916908373ffffffffffffffffffffffffffffffffffffffff160217905550505050506200060e565b600033905090565b6000604051905090565b600080fd5b600080fd5b600080fd5b600080fd5b6000601f19601f8301169050919050565b7f4e487b7100000000000000000000000000000000000000000000000000000000600052604160045260246000fd5b6200012d82620000e2565b810181811067ffffffffffffffff821117156200014f576200014e620000f3565b5b80604052505050565b600062000164620000c4565b905062000172828262000122565b919050565b600067ffffffffffffffff821115620001955762000194620000f3565b5b620001a082620000e2565b9050602081019050919050565b60005b83811015620001cd578082015181840152602081019050620001b0565b60008484015250505050565b6000620001f0620001ea8462000177565b62000158565b9050828152602081018484840111156200020f576200020e620000dd565b5b6200021c848285620001ad565b509392505050565b600082601f8301126200023c576200023b620000d8565b5b81516200024e848260208601620001d9565b91505092915050565b60008060408385031215620002715762000270620000ce565b5b600083015167ffffffffffffffff811115620002925762000291620000d3565b5b620002a08582860162000224565b925050602083015167ffffffffffffffff811115620002c457620002c3620000d3565b5b620002d28582860162000224565b9150509250929050565b600081519050919050565b7f4e487b7100000000000000000000000000000000000000000000000000000000600052602260045260246000fd5b600060028204905060018216806200032f57607f821691505b602082108103620003455762000344620002e7565b5b50919050565b60008190508160005260206000209050919050565b60006020601f8301049050919050565b600082821b905092915050565b600060088302620003af7fffffffffffffffffffffffffffffffffffffffffffffffffffffffffffffffff8262000370565b620003bb868362000370565b95508019841693508086168417925050509392505050565b6000819050919050565b6000819050919050565b60006200040862000402620003fc84620003d3565b620003dd565b620003d3565b9050919050565b6000819050919050565b6200042483620003e7565b6200043c62000433826200040f565b8484546200037d565b825550505050565b600090565b6200045362000444565b6200046081848462000419565b505050565b5b8181101562000488576200047c60008262000449565b60018101905062000466565b5050565b601f821115620004d757620004a1816200034b565b620004ac8462000360565b81016020851015620004bc578190505b620004d4620004cb8562000360565b83018262000465565b50505b505050565b600082821c905092915050565b6000620004fc60001984600802620004dc565b1980831691505092915050565b6000620005178383620004e9565b9150826002028217905092915050565b6200053282620002dc565b67ffffffffffffffff8111156200054e576200054d620000f3565b5b6200055a825462000316565b620005678282856200048c565b600060209050601f8311600181146200059f57600084156200058a578287015190505b62000596858262000509565b86555062000606565b601f198416620005af866200034b565b60005b82811015620005d957848901518255600182019150602085019450602081019050620005b2565b86831015620005f95784890151620005f5601f891682620004e9565b8355505b6001600288020188555050505b505050505050565b611c58806200061e6000396000f3fe6080604052600436106100a75760003560e01c8063a9059cbb11610064578063a9059cbb146101af578063b2bdfa7b146101d8578063bbd8fcd514610203578063bd94b0051461022c578063f4f3122e14610255578063fb2facc31461027e576100a7565b806306fdde03146100ac5780631249c58b146100d75780632061a952146100ee5780636352211e1461010a57806370a082311461014757806395d89b4114610184575b600080fd5b3480156100b857600080fd5b506100c161029a565b6040516100ce919061131f565b60405180910390f35b3480156100e357600080fd5b506100ec61032c565b005b6101086004803603810190610103919061137c565b610397565b005b34801561011657600080fd5b50610131600480360381019061012c919061137c565b6104d5565b60405161013e91906113ea565b60405180910390f35b34801561015357600080fd5b5061016e60048036038101906101699190611431565b610586565b60405161017b919061146d565b60405180910390f35b34801561019057600080fd5b5061019961063d565b6040516101a6919061131f565b60405180910390f35b3480156101bb57600080fd5b506101d660048036038101906101d19190611488565b6106cf565b005b3480156101e457600080fd5b506101ed6106dd565b6040516101fa91906113ea565b60405180910390f35b34801561020f57600080fd5b5061022a600480360381019061022591906114c8565b610703565b005b34801561023857600080fd5b50610253600480360381019061024e919061137c565b6107aa565b005b34801561026157600080fd5b5061027c6004803603810190610277919061151b565b6108b3565b005b6102986004803603810190610293919061137c565b6109ae565b005b6060600080546102a99061158a565b80601f01602080910402602001604051908101604052809291908181526020018280546102d59061158a565b80156103225780601f106102f757610100808354040283529160200191610322565b820191906000526020600020905b81548152906001019060200180831161030557829003601f168201915b5050505050905090565b603260055410610371576040517f08c379a000000000000000000000000000000000000000000000000000000000815260040161036890611607565b60405180910390fd5b61037d33600554610a81565b6005600081548092919061039090611656565b9190505550565b60076000828152602001908152602001600020546103b3610c42565b146103f3576040517f08c379a00000000000000000000000000000000000000000000000000000000081526004016103ea906116ea565b60405180910390fd5b6006600082815260200190815260200160002060009054906101000a900473ffffffffffffffffffffffffffffffffffffffff1673ffffffffffffffffffffffffffffffffffffffff166108fc610448610c42565b9081150290604051600060405180830381858888f19350505050158015610473573d6000803e3d6000fd5b5060076000828152602001908152602001600020600090556006600082815260200190815260200160002060006101000a81549073ffffffffffffffffffffffffffffffffffffffff02191690556104d26104cc610c4a565b82610c52565b50565b6000806003600084815260200190815260200160002060009054906101000a900473ffffffffffffffffffffffffffffffffffffffff169050600073ffffffffffffffffffffffffffffffffffffffff168173ffffffffffffffffffffffffffffffffffffffff160361057d576040517f08c379a000000000000000000000000000000000000000000000000000000000815260040161057490611756565b60405180910390fd5b80915050919050565b60008073ffffffffffffffffffffffffffffffffffffffff168273ffffffffffffffffffffffffffffffffffffffff16036105f6576040517f08c379a00000000000000000000000000000000000000000000000000000000081526004016105ed906117e8565b60405180910390fd5b600460008373ffffffffffffffffffffffffffffffffffffffff1673ffffffffffffffffffffffffffffffffffffffff168152602001908152602001600020549050919050565b60606001805461064c9061158a565b80601f01602080910402602001604051908101604052809291908181526020018280546106789061158a565b80156106c55780601f1061069a576101008083540402835291602001916106c5565b820191906000526020600020905b8154815290600101906020018083116106a857829003601f168201915b5050505050905090565b6106d98282610cff565b5050565b600260009054906101000a900473ffffffffffffffffffffffffffffffffffffffff1681565b61070b610c4a565b73ffffffffffffffffffffffffffffffffffffffff16600260009054906101000a900473ffffffffffffffffffffffffffffffffffffffff1673ffffffffffffffffffffffffffffffffffffffff161461079a576040517f08c379a00000000000000000000000000000000000000000000000000000000081526004016107919061187a565b60405180910390fd5b6107a5838383610f58565b505050565b6107b2610c4a565b73ffffffffffffffffffffffffffffffffffffffff166006600083815260200190815260200160002060009054906101000a900473ffffffffffffffffffffffffffffffffffffffff1673ffffffffffffffffffffffffffffffffffffffff1614610852576040517f08c379a00000000000000000000000000000000000000000000000000000000081526004016108499061190c565b60405180910390fd5b60076000828152602001908152602001600020600090556006600082815260200190815260200160002060006101000a81549073ffffffffffffffffffffffffffffffffffffffff02191690556108b06108aa610c4a565b82610c52565b50565b6108bb610c4a565b73ffffffffffffffffffffffffffffffffffffffff166108da836104d5565b73ffffffffffffffffffffffffffffffffffffffff1614610930576040517f08c379a00000000000000000000000000000000000000000000000000000000081526004016109279061190c565b60405180910390fd5b610938610c4a565b6006600084815260200190815260200160002060006101000a81548173ffffffffffffffffffffffffffffffffffffffff021916908373ffffffffffffffffffffffffffffffffffffffff1602179055508060076000848152602001908152602001600020819055506109aa82611141565b5050565b6109b6610c4a565b73ffffffffffffffffffffffffffffffffffffffff166109d5826104d5565b73ffffffffffffffffffffffffffffffffffffffff1614610a2b576040517f08c379a0000000000000000000000000000000000000000000000000000000008152600401610a229061190c565b60405180910390fd5b67016345785d8a00003414610a75576040517f08c379a0000000000000000000000000000000000000000000000000000000008152600401610a6c9061199e565b60405180910390fd5b610a7e81611141565b50565b600073ffffffffffffffffffffffffffffffffffffffff168273ffffffffffffffffffffffffffffffffffffffff1603610af0576040517f08c379a0000000000000000000000000000000000000000000000000000000008152600401610ae790611a0a565b60405180910390fd5b610af981611223565b15610b39576040517f08c379a0000000000000000000000000000000000000000000000000000000008152600401610b3090611a76565b60405180910390fd5b6001600460008473ffffffffffffffffffffffffffffffffffffffff1673ffffffffffffffffffffffffffffffffffffffff1681526020019081526020016000206000828254610b899190611a96565b92505081905550816003600083815260200190815260200160002060006101000a81548173ffffffffffffffffffffffffffffffffffffffff021916908373ffffffffffffffffffffffffffffffffffffffff160217905550808273ffffffffffffffffffffffffffffffffffffffff16600073ffffffffffffffffffffffffffffffffffffffff167fddf252ad1be2c89b69c2b068fc378daa952ba7f163c4a11628f55a4df523b3ef60405160405180910390a45050565b600034905090565b600033905090565b6001600460008473ffffffffffffffffffffffffffffffffffffffff1673ffffffffffffffffffffffffffffffffffffffff1681526020019081526020016000206000828254610ca29190611a96565b92505081905550816003600083815260200190815260200160002060006101000a81548173ffffffffffffffffffffffffffffffffffffffff021916908373ffffffffffffffffffffffffffffffffffffffff1602179055505050565b610d07610c4a565b73ffffffffffffffffffffffffffffffffffffffff16610d26826104d5565b73ffffffffffffffffffffffffffffffffffffffff1614610d7c576040517f08c379a0000000000000000000000000000000000000000000000000000000008152600401610d7390611b3c565b60405180910390fd5b600073ffffffffffffffffffffffffffffffffffffffff168273ffffffffffffffffffffffffffffffffffffffff1603610deb576040517f08c379a0000000000000000000000000000000000000000000000000000000008152600401610de290611bce565b60405180910390fd5b600160046000610df9610c4a565b73ffffffffffffffffffffffffffffffffffffffff1673ffffffffffffffffffffffffffffffffffffffff1681526020019081526020016000206000828254610e429190611bee565b925050819055506001600460008473ffffffffffffffffffffffffffffffffffffffff1673ffffffffffffffffffffffffffffffffffffffff1681526020019081526020016000206000828254610e999190611a96565b92505081905550816003600083815260200190815260200160002060006101000a81548173ffffffffffffffffffffffffffffffffffffffff021916908373ffffffffffffffffffffffffffffffffffffffff160217905550808273ffffffffffffffffffffffffffffffffffffffff16610f12610c4a565b73ffffffffffffffffffffffffffffffffffffffff167fddf252ad1be2c89b69c2b068fc378daa952ba7f163c4a11628f55a4df523b3ef60405160405180910390a45050565b6002600460008373ffffffffffffffffffffffffffffffffffffffff1673ffffffffffffffffffffffffffffffffffffffff1681526020019081526020016000206000828254610fa89190611a96565b92505081905550806003600085815260200190815260200160002060006101000a81548173ffffffffffffffffffffffffffffffffffffffff021916908373ffffffffffffffffffffffffffffffffffffffff160217905550806003600084815260200190815260200160002060006101000a81548173ffffffffffffffffffffffffffffffffffffffff021916908373ffffffffffffffffffffffffffffffffffffffff1602179055508073ffffffffffffffffffffffffffffffffffffffff166108fc6702a303fe4b5300009081150290604051600060405180830381858888f193505050501580156110a1573d6000803e3d6000fd5b506110aa610c4a565b73ffffffffffffffffffffffffffffffffffffffff166108fc662386f26fc100009081150290604051600060405180830381858888f193505050501580156110f6573d6000803e3d6000fd5b508073ffffffffffffffffffffffffffffffffffffffff1682847f0ba0cfb16c432deb0d524dfd1c8030947fda100c539ee468567a66dc9f358a4760405160405180910390a4505050565b6003600082815260200190815260200160002060006101000a81549073ffffffffffffffffffffffffffffffffffffffff0219169055600160046000611185610c4a565b73ffffffffffffffffffffffffffffffffffffffff1673ffffffffffffffffffffffffffffffffffffffff16815260200190815260200160002060008282546111ce9190611bee565b92505081905550806111de610c4a565b73ffffffffffffffffffffffffffffffffffffffff167f6b7cd69b67e1df4ae90a622a317601f488590b87285c2945fdda398d2942577760405160405180910390a350565b60008073ffffffffffffffffffffffffffffffffffffffff166003600084815260200190815260200160002060009054906101000a900473ffffffffffffffffffffffffffffffffffffffff1673ffffffffffffffffffffffffffffffffffffffff1614159050919050565b600081519050919050565b600082825260208201905092915050565b60005b838110156112c95780820151818401526020810190506112ae565b60008484015250505050565b6000601f19601f8301169050919050565b60006112f18261128f565b6112fb818561129a565b935061130b8185602086016112ab565b611314816112d5565b840191505092915050565b6000602082019050818103600083015261133981846112e6565b905092915050565b600080fd5b6000819050919050565b61135981611346565b811461136457600080fd5b50565b60008135905061137681611350565b92915050565b60006020828403121561139257611391611341565b5b60006113a084828501611367565b91505092915050565b600073ffffffffffffffffffffffffffffffffffffffff82169050919050565b60006113d4826113a9565b9050919050565b6113e4816113c9565b82525050565b60006020820190506113ff60008301846113db565b92915050565b61140e816113c9565b811461141957600080fd5b50565b60008135905061142b81611405565b92915050565b60006020828403121561144757611446611341565b5b60006114558482850161141c565b91505092915050565b61146781611346565b82525050565b6000602082019050611482600083018461145e565b92915050565b6000806040838503121561149f5761149e611341565b5b60006114ad8582860161141c565b92505060206114be85828601611367565b9150509250929050565b6000806000606084860312156114e1576114e0611341565b5b60006114ef86828701611367565b935050602061150086828701611367565b92505060406115118682870161141c565b9150509250925092565b6000806040838503121561153257611531611341565b5b600061154085828601611367565b925050602061155185828601611367565b9150509250929050565b7f4e487b7100000000000000000000000000000000000000000000000000000000600052602260045260246000fd5b600060028204905060018216806115a257607f821691505b6020821081036115b5576115b461155b565b5b50919050565b7f4d696e74696e672070726f6365647572652069732066696e69736865642e0000600082015250565b60006115f1601e8361129a565b91506115fc826115bb565b602082019050919050565b60006020820190508181036000830152611620816115e4565b9050919050565b7f4e487b7100000000000000000000000000000000000000000000000000000000600052601160045260246000fd5b600061166182611346565b91507fffffffffffffffffffffffffffffffffffffffffffffffffffffffffffffffff820361169357611692611627565b5b600182019050919050565b7f416d6f756e742069732077726f6e670000000000000000000000000000000000600082015250565b60006116d4600f8361129a565b91506116df8261169e565b602082019050919050565b60006020820190508181036000830152611703816116c7565b9050919050565b7f4552433732313a20696e76616c696420746f6b656e2049440000000000000000600082015250565b600061174060188361129a565b915061174b8261170a565b602082019050919050565b6000602082019050818103600083015261176f81611733565b9050919050565b7f4552433732313a2061646472657373207a65726f206973206e6f74206120766160008201527f6c6964206f776e65720000000000000000000000000000000000000000000000602082015250565b60006117d260298361129a565b91506117dd82611776565b604082019050919050565b60006020820190508181036000830152611801816117c5565b9050919050565b7f4552433732313a20596f7520617265206e6f7420746865206f776e6572206f6660008201527f2074686520636f6e747261637400000000000000000000000000000000000000602082015250565b6000611864602d8361129a565b915061186f82611808565b604082019050919050565b6000602082019050818103600083015261189381611857565b9050919050565b7f4552433732313a20596f7520617265206e6f7420746865206f776e6572206f6660008201527f2074686520746f6b656e00000000000000000000000000000000000000000000602082015250565b60006118f6602a8361129a565b91506119018261189a565b604082019050919050565b60006020820190508181036000830152611925816118e9565b9050919050565b7f596f75206d75737420706179203130303030303030303030303030303030302060008201527f77656920746f20617474656e6400000000000000000000000000000000000000602082015250565b6000611988602d8361129a565b91506119938261192c565b604082019050919050565b600060208201905081810360008301526119b78161197b565b9050919050565b7f4552433732313a206d696e7420746f20746865207a65726f2061646472657373600082015250565b60006119f460208361129a565b91506119ff826119be565b602082019050919050565b60006020820190508181036000830152611a23816119e7565b9050919050565b7f4552433732313a20746f6b656e20616c7265616479206d696e74656400000000600082015250565b6000611a60601c8361129a565b9150611a6b82611a2a565b602082019050919050565b60006020820190508181036000830152611a8f81611a53565b9050919050565b6000611aa182611346565b9150611aac83611346565b9250828201905080821115611ac457611ac3611627565b5b92915050565b7f4552433732313a207472616e736665722066726f6d20696e636f72726563742060008201527f6f776e6572000000000000000000000000000000000000000000000000000000602082015250565b6000611b2660258361129a565b9150611b3182611aca565b604082019050919050565b60006020820190508181036000830152611b5581611b19565b9050919050565b7f4552433732313a207472616e7366657220746f20746865207a65726f2061646460008201527f7265737300000000000000000000000000000000000000000000000000000000602082015250565b6000611bb860248361129a565b9150611bc382611b5c565b604082019050919050565b60006020820190508181036000830152611be781611bab565b9050919050565b6000611bf982611346565b9150611c0483611346565b9250828203905081811115611c1c57611c1b611627565b5b9291505056fea2646970667358221220042b02f23aadd0b6d85e55c856b614136c9657746acb1b82bfba767e461e682764736f6c63430008100033",
  "immutableReferences": {},
  "source": "// SPDX-License-Identifier: non\npragma solidity ^0.8.0;\n\nimport \"./MyERC721.sol\";\n\ncontract MyToken is MyERC721 {\n    \n    uint256 tokenId = 0;\n    mapping(uint256 => address) tokensInSale;\n    mapping(uint256 => uint256) tokensPrice;\n\n    constructor(string memory name, string memory symbol) MyERC721(name, symbol) {  \n\n    }\n\n    function mint() public{\n        require(tokenId < 50, \"Minting procedure is finished.\");\n        _mint(msg.sender, tokenId);\n        tokenId++;\n    }\n\n\n    function startSale(uint256 tokenId_, uint256 tokenPrice) public {\n        require(MyERC721.ownerOf(tokenId_) == _msgSender(), \"ERC721: You are not the owner of the token\");\n        \n        tokensInSale[tokenId_] = _msgSender();\n        tokensPrice[tokenId_] = tokenPrice;\n        _takeNFT(tokenId_);\n    }    \n\n    function finishSale(uint256 tokenId_) public payable{\n        require(_msgValue() == tokensPrice[tokenId_], \"Amount is wrong\");\n\n        payable(tokensInSale[tokenId_]).transfer(_msgValue());\n        delete tokensPrice[tokenId_];\n        delete tokensInSale[tokenId_];\n        _sendTokenTo(_msgSender(), tokenId_);\n    }\n\n    function cancelSale(uint256 tokenId_) public{\n        require(tokensInSale[tokenId_] == _msgSender(), \"ERC721: You are not the owner of the token\");\n        \n        delete tokensPrice[tokenId_];\n        delete tokensInSale[tokenId_];\n        _sendTokenTo(_msgSender(), tokenId_);\n    }\n\n    function transfer(address to, uint256 tokenID) public {\n\n        _transfer(to, tokenID);\n    }\n\n    function takeNFT(uint256 tokenId_) external payable {\n        require(MyERC721.ownerOf(tokenId_) == _msgSender(), \"ERC721: You are not the owner of the token\");\n        require(msg.value == 100000000000000000, \"You must pay 100000000000000000 wei to attend\");\n        \n        _takeNFT(tokenId_);\n    }\n\n    function sendNFTsToWinner(uint256 tokenIdF, uint256 tokenIdS, address to) public{\n        require(_owner == _msgSender(), \"ERC721: You are not the owner of the contract\");   \n        \n        _sendNFTsToWinner(tokenIdF, tokenIdS, to);\n    }\n\n}",
  "sourcePath": "/home/safak/bl18/front/contracts/MyToken.sol",
  "compiler": {
    "name": "solc",
    "version": "0.8.16+commit.07a7930e.Emscripten.clang"
  },
  "schemaVersion": "3.4.8",
  "updatedAt": "2022-09-17T14:59:06.075Z",
  "networkType": "ethereum",
  "devdoc": {
    "kind": "dev",
    "methods": {
      "name()": {
        "details": "See {IERC721Metadata-name}."
      },
      "ownerOf(uint256)": {
        "details": "See {IERC721-ownerOf}."
      },
      "symbol()": {
        "details": "See {IERC721Metadata-symbol}."
      }
    },
    "version": 1
  },
  "userdoc": {
    "kind": "user",
    "methods": {},
    "version": 1
  }
}